{
  "_format": "hh-sol-artifact-1",
  "contractName": "GraphTest",
  "sourceName": "contracts/GraphTest.sol",
  "abi": [
    {
      "inputs": [
        {
          "internalType": "address",
          "name": "instance",
          "type": "address"
        },
        {
          "internalType": "uint64",
          "name": "schema",
          "type": "uint64"
        }
      ],
      "stateMutability": "nonpayable",
      "type": "constructor"
    },
    {
      "inputs": [
        {
          "internalType": "address",
          "name": "owner",
          "type": "address"
        }
      ],
      "name": "OwnableInvalidOwner",
      "type": "error"
    },
    {
      "inputs": [
        {
          "internalType": "address",
          "name": "account",
          "type": "address"
        }
      ],
      "name": "OwnableUnauthorizedAccount",
      "type": "error"
    },
    {
      "anonymous": false,
      "inputs": [
        {
          "indexed": true,
          "internalType": "address",
          "name": "previousOwner",
          "type": "address"
        },
        {
          "indexed": true,
          "internalType": "address",
          "name": "newOwner",
          "type": "address"
        }
      ],
      "name": "OwnershipTransferred",
      "type": "event"
    },
    {
      "anonymous": false,
      "inputs": [
        {
          "indexed": true,
          "internalType": "uint256",
          "name": "topicId",
          "type": "uint256"
        },
        {
          "indexed": false,
          "internalType": "uint256",
          "name": "newTotalAmount",
          "type": "uint256"
        },
        {
          "indexed": false,
          "internalType": "uint256",
          "name": "timestamp",
          "type": "uint256"
        }
      ],
      "name": "StakePoolUpdated",
      "type": "event"
    },
    {
      "anonymous": false,
      "inputs": [
        {
          "indexed": true,
          "internalType": "address",
          "name": "user",
          "type": "address"
        },
        {
          "indexed": true,
          "internalType": "uint256",
          "name": "topicId",
          "type": "uint256"
        },
        {
          "indexed": false,
          "internalType": "uint256",
          "name": "amount",
          "type": "uint256"
        },
        {
          "indexed": false,
          "internalType": "uint256",
          "name": "timestamp",
          "type": "uint256"
        }
      ],
      "name": "Staked",
      "type": "event"
    },
    {
      "anonymous": false,
      "inputs": [
        {
          "indexed": false,
          "internalType": "address",
          "name": "userWalletAddr",
          "type": "address"
        }
      ],
      "name": "createEducator",
      "type": "event"
    },
    {
      "anonymous": false,
      "inputs": [
        {
          "indexed": true,
          "internalType": "address",
          "name": "eduWalletAddr",
          "type": "address"
        },
        {
          "indexed": true,
          "internalType": "uint256",
          "name": "topicId",
          "type": "uint256"
        },
        {
          "indexed": true,
          "internalType": "uint256",
          "name": "moduleId",
          "type": "uint256"
        },
        {
          "indexed": false,
          "internalType": "uint256",
          "name": "pageAmount",
          "type": "uint256"
        },
        {
          "indexed": false,
          "internalType": "string",
          "name": "title",
          "type": "string"
        },
        {
          "indexed": false,
          "internalType": "string",
          "name": "description",
          "type": "string"
        },
        {
          "indexed": false,
          "internalType": "string",
          "name": "moduleIMG",
          "type": "string"
        }
      ],
      "name": "createModule",
      "type": "event"
    },
    {
      "anonymous": false,
      "inputs": [
        {
          "indexed": false,
          "internalType": "uint256",
          "name": "topicId",
          "type": "uint256"
        },
        {
          "indexed": false,
          "internalType": "string",
          "name": "title",
          "type": "string"
        },
        {
          "indexed": false,
          "internalType": "string",
          "name": "description",
          "type": "string"
        },
        {
          "indexed": false,
          "internalType": "string",
          "name": "topicIMG",
          "type": "string"
        },
        {
          "indexed": false,
          "internalType": "bool",
          "name": "isAttested",
          "type": "bool"
        }
      ],
      "name": "createTopic",
      "type": "event"
    },
    {
      "anonymous": false,
      "inputs": [
        {
          "indexed": false,
          "internalType": "address",
          "name": "userWalletAddr",
          "type": "address"
        },
        {
          "indexed": false,
          "internalType": "string",
          "name": "name",
          "type": "string"
        },
        {
          "indexed": false,
          "internalType": "string[]",
          "name": "socials",
          "type": "string[]"
        },
        {
          "indexed": false,
          "internalType": "bool",
          "name": "isVerified",
          "type": "bool"
        }
      ],
      "name": "createUser",
      "type": "event"
    },
    {
      "anonymous": false,
      "inputs": [
        {
          "indexed": false,
          "internalType": "address",
          "name": "userWalletAddr",
          "type": "address"
        },
        {
          "indexed": false,
          "internalType": "uint256",
          "name": "moduleId",
          "type": "uint256"
        }
      ],
      "name": "learnerJoinModule",
      "type": "event"
    },
    {
      "anonymous": false,
      "inputs": [
        {
          "indexed": false,
          "internalType": "address",
          "name": "userWalletAddr",
          "type": "address"
        },
        {
          "indexed": false,
          "internalType": "uint256",
          "name": "topicId",
          "type": "uint256"
        }
      ],
      "name": "learnerJoinTopic",
      "type": "event"
    },
    {
      "anonymous": false,
      "inputs": [
        {
          "indexed": true,
          "internalType": "address",
          "name": "userWalletAddr",
          "type": "address"
        },
        {
          "indexed": true,
          "internalType": "uint256",
          "name": "moduleId",
          "type": "uint256"
        },
        {
          "indexed": false,
          "internalType": "uint256",
          "name": "pageAmount",
          "type": "uint256"
        },
        {
          "indexed": false,
          "internalType": "uint256",
          "name": "rating",
          "type": "uint256"
        }
      ],
      "name": "updateLearnerProgress",
      "type": "event"
    },
    {
      "anonymous": false,
      "inputs": [
        {
          "indexed": true,
          "internalType": "uint256",
          "name": "topicId",
          "type": "uint256"
        },
        {
          "indexed": false,
          "internalType": "bool",
          "name": "isAttested",
          "type": "bool"
        }
      ],
      "name": "updateTopicAttestationStatus",
      "type": "event"
    },
    {
      "anonymous": false,
      "inputs": [
        {
          "indexed": true,
          "internalType": "address",
          "name": "walletAddr",
          "type": "address"
        }
      ],
      "name": "updateWorldIdStatus",
      "type": "event"
    },
    {
      "inputs": [
        {
          "internalType": "address",
          "name": "",
          "type": "address"
        }
      ],
      "name": "educators",
      "outputs": [
        {
          "internalType": "bool",
          "name": "",
          "type": "bool"
        }
      ],
      "stateMutability": "view",
      "type": "function"
    },
    {
      "inputs": [
        {
          "internalType": "address",
          "name": "educator",
          "type": "address"
        }
      ],
      "name": "emitAddEducator",
      "outputs": [],
      "stateMutability": "nonpayable",
      "type": "function"
    },
    {
      "inputs": [
        {
          "internalType": "address",
          "name": "walletAddr",
          "type": "address"
        },
        {
          "internalType": "uint256",
          "name": "moduleId",
          "type": "uint256"
        }
      ],
      "name": "emitAddUserToModule",
      "outputs": [],
      "stateMutability": "nonpayable",
      "type": "function"
    },
    {
      "inputs": [
        {
          "internalType": "address",
          "name": "walletAddr",
          "type": "address"
        },
        {
          "internalType": "uint256",
          "name": "topicId",
          "type": "uint256"
        }
      ],
      "name": "emitAddUserToTopic",
      "outputs": [],
      "stateMutability": "nonpayable",
      "type": "function"
    },
    {
      "inputs": [
        {
          "internalType": "uint256",
          "name": "topicId",
          "type": "uint256"
        }
      ],
      "name": "emitAttestTopic",
      "outputs": [
        {
          "internalType": "uint64",
          "name": "",
          "type": "uint64"
        }
      ],
      "stateMutability": "nonpayable",
      "type": "function"
    },
    {
      "inputs": [
        {
          "internalType": "uint256",
          "name": "topicId",
          "type": "uint256"
        },
        {
          "internalType": "address",
          "name": "eduWalletAddr",
          "type": "address"
        },
        {
          "internalType": "uint256",
          "name": "totalPages",
          "type": "uint256"
        },
        {
          "internalType": "string",
          "name": "title",
          "type": "string"
        },
        {
          "internalType": "string",
          "name": "description",
          "type": "string"
        },
        {
          "internalType": "string",
          "name": "moduleIMG",
          "type": "string"
        }
      ],
      "name": "emitCreateModule",
      "outputs": [],
      "stateMutability": "nonpayable",
      "type": "function"
    },
    {
      "inputs": [
        {
          "internalType": "address",
          "name": "walletAddr",
          "type": "address"
        },
        {
          "internalType": "string",
          "name": "name",
          "type": "string"
        },
        {
          "internalType": "string[]",
          "name": "socials",
          "type": "string[]"
        }
      ],
      "name": "emitCreateUser",
      "outputs": [],
      "stateMutability": "nonpayable",
      "type": "function"
    },
    {
      "inputs": [
        {
          "internalType": "address",
          "name": "walletAddr",
          "type": "address"
        },
        {
          "internalType": "uint256",
          "name": "moduleId",
          "type": "uint256"
        },
        {
          "internalType": "uint256",
          "name": "pageAmount",
          "type": "uint256"
        },
        {
          "internalType": "uint256",
          "name": "rating",
          "type": "uint256"
        }
      ],
      "name": "emitUpdateLearnerProgress",
      "outputs": [],
      "stateMutability": "nonpayable",
      "type": "function"
    },
    {
      "inputs": [
        {
          "internalType": "address",
          "name": "walletAddr",
          "type": "address"
        }
      ],
      "name": "emitVerifyWorldID",
      "outputs": [],
      "stateMutability": "nonpayable",
      "type": "function"
    },
    {
      "inputs": [
        {
          "internalType": "uint256",
          "name": "topicId",
          "type": "uint256"
        },
        {
          "internalType": "uint256",
          "name": "engagement",
          "type": "uint256"
        },
        {
          "internalType": "uint256",
          "name": "totalEngagement",
          "type": "uint256"
        },
        {
          "internalType": "uint256",
          "name": "rating",
          "type": "uint256"
        },
        {
          "internalType": "uint256",
          "name": "totalRating",
          "type": "uint256"
        },
        {
          "internalType": "uint256",
          "name": "learner",
          "type": "uint256"
        },
        {
          "internalType": "uint256",
          "name": "totalLearner",
          "type": "uint256"
        }
      ],
      "name": "getPayout",
      "outputs": [
        {
          "internalType": "uint256",
          "name": "payoutAmount",
          "type": "uint256"
        }
      ],
      "stateMutability": "view",
      "type": "function"
    },
    {
      "inputs": [
        {
          "internalType": "uint256",
          "name": "topicId",
          "type": "uint256"
        }
      ],
      "name": "getTopic",
      "outputs": [
        {
          "internalType": "string",
          "name": "",
          "type": "string"
        },
        {
          "internalType": "string",
          "name": "",
          "type": "string"
        },
        {
          "internalType": "address",
          "name": "",
          "type": "address"
        },
        {
          "internalType": "string",
          "name": "",
          "type": "string"
        },
        {
          "internalType": "bool",
          "name": "",
          "type": "bool"
        }
      ],
      "stateMutability": "view",
      "type": "function"
    },
    {
      "inputs": [],
      "name": "getTopicCount",
      "outputs": [
        {
          "internalType": "uint256",
          "name": "",
          "type": "uint256"
        }
      ],
      "stateMutability": "view",
      "type": "function"
    },
    {
      "inputs": [
        {
          "internalType": "uint256",
          "name": "_topicId",
          "type": "uint256"
        }
      ],
      "name": "getTopicStakedPool",
      "outputs": [
        {
          "internalType": "uint256",
          "name": "",
          "type": "uint256"
        }
      ],
      "stateMutability": "view",
      "type": "function"
    },
    {
      "inputs": [
        {
          "internalType": "address",
          "name": "",
          "type": "address"
        },
        {
          "internalType": "uint256",
          "name": "",
          "type": "uint256"
        }
      ],
      "name": "isStaked",
      "outputs": [
        {
          "internalType": "bool",
          "name": "",
          "type": "bool"
        }
      ],
      "stateMutability": "view",
      "type": "function"
    },
    {
      "inputs": [],
      "name": "owner",
      "outputs": [
        {
          "internalType": "address",
          "name": "",
          "type": "address"
        }
      ],
      "stateMutability": "view",
      "type": "function"
    },
    {
      "inputs": [],
      "name": "renounceOwnership",
      "outputs": [],
      "stateMutability": "nonpayable",
      "type": "function"
    },
    {
      "inputs": [],
      "name": "schemaId",
      "outputs": [
        {
          "internalType": "uint64",
          "name": "",
          "type": "uint64"
        }
      ],
      "stateMutability": "view",
      "type": "function"
    },
    {
      "inputs": [
        {
          "internalType": "address",
          "name": "_relayer",
          "type": "address"
        }
      ],
      "name": "setTrustedRelayer",
      "outputs": [],
      "stateMutability": "nonpayable",
      "type": "function"
    },
    {
      "inputs": [],
      "name": "spInstance",
      "outputs": [
        {
          "internalType": "contract ISP",
          "name": "",
          "type": "address"
        }
      ],
      "stateMutability": "view",
      "type": "function"
    },
    {
      "inputs": [
        {
          "internalType": "uint256",
          "name": "_topicId",
          "type": "uint256"
        }
      ],
      "name": "stake",
      "outputs": [],
      "stateMutability": "payable",
      "type": "function"
    },
    {
      "inputs": [
        {
          "internalType": "string",
          "name": "topic",
          "type": "string"
        },
        {
          "internalType": "string",
          "name": "description",
          "type": "string"
        },
        {
          "internalType": "address",
          "name": "learner",
          "type": "address"
        },
        {
          "internalType": "string",
          "name": "topicIMG",
          "type": "string"
        }
      ],
      "name": "submitTopic",
      "outputs": [],
      "stateMutability": "nonpayable",
      "type": "function"
    },
    {
      "inputs": [
        {
          "internalType": "uint256",
          "name": "",
          "type": "uint256"
        }
      ],
      "name": "topicStakedPool",
      "outputs": [
        {
          "internalType": "uint256",
          "name": "",
          "type": "uint256"
        }
      ],
      "stateMutability": "view",
      "type": "function"
    },
    {
      "inputs": [
        {
          "internalType": "uint256",
          "name": "",
          "type": "uint256"
        }
      ],
      "name": "topics",
      "outputs": [
        {
          "internalType": "string",
          "name": "topic",
          "type": "string"
        },
        {
          "internalType": "string",
          "name": "description",
          "type": "string"
        },
        {
          "internalType": "string",
          "name": "image",
          "type": "string"
        },
        {
          "internalType": "address",
          "name": "learner",
          "type": "address"
        },
        {
          "internalType": "bool",
          "name": "isAttested",
          "type": "bool"
        }
      ],
      "stateMutability": "view",
      "type": "function"
    },
    {
      "inputs": [
        {
          "internalType": "address",
          "name": "newOwner",
          "type": "address"
        }
      ],
      "name": "transferOwnership",
      "outputs": [],
      "stateMutability": "nonpayable",
      "type": "function"
    },
    {
      "inputs": [],
      "name": "trustedRelayer",
      "outputs": [
        {
          "internalType": "address",
          "name": "",
          "type": "address"
        }
      ],
      "stateMutability": "view",
      "type": "function"
    },
    {
      "inputs": [
        {
          "internalType": "address",
          "name": "",
          "type": "address"
        },
        {
          "internalType": "uint256",
          "name": "",
          "type": "uint256"
        }
      ],
      "name": "userStakeAmount",
      "outputs": [
        {
          "internalType": "uint256",
          "name": "",
          "type": "uint256"
        }
      ],
      "stateMutability": "view",
      "type": "function"
    },
    {
      "inputs": [
        {
          "internalType": "address",
          "name": "",
          "type": "address"
        }
      ],
      "name": "whoIsVerified",
      "outputs": [
        {
          "internalType": "bool",
          "name": "",
          "type": "bool"
        }
      ],
      "stateMutability": "view",
      "type": "function"
    },
    {
      "inputs": [
        {
          "internalType": "uint256",
          "name": "_topicId",
          "type": "uint256"
        },
        {
          "internalType": "uint256",
          "name": "amount",
          "type": "uint256"
        },
        {
          "internalType": "address payable",
          "name": "recipient",
          "type": "address"
        }
      ],
      "name": "withdraw",
      "outputs": [],
      "stateMutability": "nonpayable",
      "type": "function"
    }
  ],
  "bytecode": "0x60803461010457601f6121e038819003918201601f19168301916001600160401b038311848410176101095780849260409485528339810103126101045780516001600160a01b038116919082900361010457602001516001600160401b03811681036101045733156100ee5760008054336001600160a01b0319821681178355604051949290916001600160a01b0316907f8be0079c531659141344cd1fd0a4f28419497f9722a3daafe3b4186f6b6457e09080a36000600355600060045560015491600160a01b600160e01b039060a01b169163ffffffff60e01b1617176001556120c090816101208239f35b631e4fbdf760e01b600052600060045260246000fd5b600080fd5b634e487b7160e01b600052604160045260246000fdfe608080604052600436101561001357600080fd5b60003560e01c908163075b1a0914611bd7575080630ad58d2f14611a6d5780630f907e301461194757806318d9adab146118bd5780631e47e241146117c65780632be5bf4c1461177e5780632df7c23c1461173f57806332497993146116e35780635451da1b14611696578063596f306c1461165757806359bf9464146114de5780635b4f13431461142157806371120ce2146113a2578063715018a614611349578063716588961461125d5780638596c226146112345780638b23d77414610d3a5780638da5cb5b14610d115780639054b6cf14610c7f578063a694fc3a14610a69578063a8c5dc3314610a40578063b636fbab14610a14578063cc89698c146109f6578063d6bdd44e14610978578063e35693001461092e578063ed97522d146107ca578063f2fde38b146107415763fe2d552e1461015357600080fd5b3461073c57608036600319011261073c576004356001600160401b03811161073c57610183903690600401611da3565b6024356001600160401b03811161073c576101a2903690600401611da3565b6044356001600160a01b03811692919083900361073c576064356001600160401b03811161073c576101d8903690600401611da3565b60405160ff845191602081818801946101f2818388611d5b565b8101600781520301902054166106f75784156106b257610213600354611e8a565b948560035560405161022481611c7b565b85815260208101858152604082019085825260608301938452608083019860008a526000526008602052604060002092518051906001600160401b0382116105165781906102728654611c41565b601f811161065f575b50602090601f83116001146105fa576000926105ef575b50508160011b916000199060031b1c19161783555b51805160018401916001600160401b0382116105165781906102c98454611c41565b601f811161059c575b50602090601f83116001146105375760009261052c575b50508160011b916000199060031b1c19161790555b51805160028301916001600160401b0382116105165761031e8354611c41565b601f81116104ce575b50602090601f831160011461043757602094610420989794846103cc98957f042a66aeac45541205418b49fe1ffc2daa4907e14bf04ee282a4273f174b25ba9e9560039560009261042c575b50508160011b9160001990861b1c19161790555b92519201805491516001600160a81b03199092166001600160a01b03939093169290921790151560a01b60ff60a01b1617905560405187519093849282908490611d5b565b81016007815203019020600160ff1982541617905561041260035493610404604051968796875260a0602088015260a0870190611d7e565b908582036040870152611d7e565b908382036060850152611d7e565b600060808301520390a1005b015190503880610373565b90601f1983169184600052816000209260005b8181106104b65750946001857f042a66aeac45541205418b49fe1ffc2daa4907e14bf04ee282a4273f174b25ba9e9560039560209a956103cc9c996104209f9e9b1061049e575b505050811b019055610387565b015160001983881b60f8161c19169055388080610491565b9293602060018192878601518155019501930161044a565b836000526020600020601f840160051c8101916020851061050c575b601f0160051c01905b8181106105005750610327565b600081556001016104f3565b90915081906104ea565b634e487b7160e01b600052604160045260246000fd5b0151905038806102e9565b60008581528281209350601f198516905b818110610584575090846001959493921061056b575b505050811b0190556102fe565b015160001960f88460031b161c1916905538808061055e565b92936020600181928786015181550195019301610548565b909150836000526020600020601f840160051c810191602085106105e5575b90601f859493920160051c01905b8181106105d657506102d2565b600081558493506001016105c9565b90915081906105bb565b015190503880610292565b60008781528281209350601f198516905b818110610647575090846001959493921061062e575b505050811b0183556102a7565b015160001960f88460031b161c19169055388080610621565b9293602060018192878601518155019501930161060b565b909150856000526020600020601f840160051c810191602085106106a8575b90601f859493920160051c01905b818110610699575061027b565b6000815584935060010161068c565b909150819061067e565b60405162461bcd60e51b815260206004820152601760248201527f496e76616c6964206c6561726e657220616464726573730000000000000000006044820152606490fd5b60405162461bcd60e51b815260206004820152601760248201527f546f70696320616c7265616479207375626d69747465640000000000000000006044820152606490fd5b600080fd5b3461073c57602036600319011261073c5761075a611bfe565b610762612061565b6001600160a01b031680156107b457600080546001600160a01b03198116831782556001600160a01b0316907f8be0079c531659141344cd1fd0a4f28419497f9722a3daafe3b4186f6b6457e09080a3005b631e4fbdf760e01b600052600060045260246000fd5b3461073c5760e036600319011261073c5760443560843560c43582156108e95781156108a457801561085f576108146108369261083061081960a43561081460643560243561204e565b61204e565b600435600052600b6020526040600020549061204e565b9461204e565b9081156108495760209160405191048152f35b634e487b7160e01b600052601260045260246000fd5b60405162461bcd60e51b815260206004820152601d60248201527f546f74616c206c6561726e6572732063616e6e6f74206265207a65726f0000006044820152606490fd5b60405162461bcd60e51b815260206004820152601b60248201527f546f74616c20726174696e672063616e6e6f74206265207a65726f00000000006044820152606490fd5b60405162461bcd60e51b815260206004820152601f60248201527f546f74616c20656e676167656d656e742063616e6e6f74206265207a65726f006044820152606490fd5b3461073c57602036600319011261073c576004358015158061096c575b61095490611f5c565b600052600b6020526020604060002054604051908152f35b5060035481111561094b565b3461073c57608036600319011261073c57610991611bfe565b60243590811515806109ea575b6109a790611f10565b60408051604435815260643560208201526001600160a01b03909216917f1c417db1d331979a8fcefeaa7c0e4e46912fd224ee3d35ee468605e1341a0b429190a3005b5060045482111561099e565b3461073c57600036600319011261073c576020600354604051908152f35b3461073c57602036600319011261073c57600435600052600b6020526020604060002054604051908152f35b3461073c57600036600319011261073c576001546040516001600160a01b039091168152602090f35b602036600319011261073c57600435655af3107a4000341115610c255760035481111580610c1c575b610a9b90611f5c565b33600052600a60205260406000208160005260205260ff60406000205416610bd757610bd27ff40291df1167ceb7e8d47d23e5a9e6357c449615c463ca5d27787e22760199409133600052600a6020526040600020816000526020526040600020600160ff1982541617905533600052600c6020526040600020816000526020526040600020610b2c348254612041565b905580600052600b6020526040600020610b47348254612041565b9055806040513481524260208201527fb4caaf29adda3eefee3ad552a8e85058589bf834c7466cae4ee58787f70589ed60403392a380600052600b602052807f276f327438eda2062c03ab6a177c77174cbe3608ae19580f2049c988be566b33604080600020548151908152426020820152a260408051338152602081019290925290918291820190565b0390a1005b60405162461bcd60e51b815260206004820152601d60248201527f416c7265616479207374616b656420666f72207468697320746f7069630000006044820152606490fd5b50801515610a92565b60405162461bcd60e51b815260206004820152602c60248201527f5374616b6520616d6f756e74206d75737420626520677265617465722074686160448201526b0dc40605c60606062408aa8960a31b6064820152608490fd5b3461073c57602036600319011261073c57610c98611bfe565b610ca0612061565b6001600160a01b03168015610ccc576bffffffffffffffffffffffff60a01b6002541617600255600080f35b60405162461bcd60e51b815260206004820152601760248201527f496e76616c69642072656c6179657220616464726573730000000000000000006044820152606490fd5b3461073c57600036600319011261073c576000546040516001600160a01b039091168152602090f35b3461073c57602036600319011261073c57600435336000526009602052610d6860ff60406000205416611df9565b80151580611228575b610d7a90611f5c565b80600052600860205260ff60036040600020015460a01c166111ea5780600052600860205260018060a01b036003604060002001541633146111a5576000546001600160a01b03163314611161576040805191610dd78284611c96565b60018352601f19820160005b8181106111505783610e73848781600052600860205260018060a01b03600385600020015416845190602082015260208152610e1f8582611c96565b610e2882611f9b565b52610e3281611f9b565b506000828152600860209081529085902085516060928101929092529093610ea4918591610e96916002810191610e84916001810191906080870190611fbe565b858103601f19018b87015290611fbe565b838103601f1901606085015290611fbe565b03601f198101855284611c96565b6001600160401b0360015460a01c1684519061014082018281106001600160401b038211176105165786528152602081019360008552858201926000845260608301600081526080840130815260a085016000815260c08601916000835260e087019360008552610100880195865261012088019687528960005260086020528b600020600301600160a01b60ff60a01b19825416179055600160a01b6001900360015416988c519b63b82916cb60e01b8d5260048d01608090528c6101c481019a516001600160401b03169060840152516001600160401b031660a48d0152516001600160401b031660c48c0152516001600160401b031660e48b0152600160a01b600190039051166101048a0152516001600160401b031661012489015251600481101561113a576101448801525115156101648701525161014061018487015280519283905285926101e4600582901b850181019392602001919060009086015b82821061110857505050506000606061103360209694869451608319868303016101a4870152611d7e565b828a8583039260031984016024880152828152601c84016044880152828a820152603c84016064880152015201925af19182156110fd576000926110af575b50826001600160401b03917f207ba84a2c1ef7cd4d9aaad94a2a67f4741aaea7d887c5ea11f2eab85320a92c602080965160018152a25191168152f35b6020929192813d6020116110f5575b816110cb60209383611c96565b810103126110f15751906001600160401b03821682036110ee5750906020611072565b80fd5b5080fd5b3d91506110be565b83513d6000823e3d90fd5b919394600191939650602061112981926101e3198d82030186528951611d7e565b970192019201889594939192611008565b634e487b7160e01b600052602160045260246000fd5b806060602080938801015201610de3565b606460405162461bcd60e51b815260206004820152602060248201527f4f776e65722063616e6e6f742061747465737420746f2074686520746f7069636044820152fd5b60405162461bcd60e51b815260206004820152601e60248201527f4564756361746f722063616e6e6f7420626520746865206c6561726e657200006044820152606490fd5b60405162461bcd60e51b8152602060048201526016602482015275151bdc1a58c8185b1c9958591e48185d1d195cdd195960521b6044820152606490fd5b50600354811115610d71565b3461073c57600036600319011261073c576002546040516001600160a01b039091168152602090f35b3461073c57602036600319011261073c576004358015158061133d575b61128390611f5c565b6000526008602052611312604060002060405161129f81611c7b565b6112a882611cb7565b81526113336112b960018401611cb7565b926020830193845260036112cf60028301611cb7565b9182604086015201549061132060ff60018060a01b0384169384606088015260a01c1615159485608082015251955160405197889760a0895260a0890190611d7e565b908782036020890152611d7e565b9160408601528482036060860152611d7e565b9060808301520390f35b5060035481111561127a565b3461073c57600036600319011261073c57611362612061565b600080546001600160a01b0319811682556001600160a01b03167f8be0079c531659141344cd1fd0a4f28419497f9722a3daafe3b4186f6b6457e08280a3005b3461073c57604036600319011261073c577fe3a75ae8a3f37633d4ffafbe948149ada2ea75f5809a9231c2ddbcd5630c03806113dc611bfe565b6024359081151580611415575b6113f290611f10565b604080516001600160a01b03909216825260208201929092529081908101610bd2565b506004548211156113e9565b3461073c57602036600319011261073c576001600160a01b03611442611bfe565b1680600052600560205260ff60406000205416611499578060005260056020526040600020600160ff198254161790557f39279eead648f012b538dba8a6c151612eab33e195c34eb379b55cdecce1f7fb600080a2005b60405162461bcd60e51b815260206004820152601c60248201527f4572726f723a205573657220616c7265616479207665726966696564000000006044820152606490fd5b3461073c57606036600319011261073c576114f7611bfe565b6024356001600160401b03811161073c57611516903690600401611c14565b91604435906001600160401b03821161073c573660238301121561073c578160040135906001600160401b03821161073c578160051b90366024838601011161073c576001600160a01b03166000818152600560209081526040808320805460ff191690555192835260809083018190529096919593949361159c929187019190611e99565b92848403604086015280845260208085019285010193602484019360009160421982360301905b8484106115fa5789151560608a01527ff2067a527413772210319420952f624565f297365a6fe96953af767479b2a6d68989038aa1005b90919293949596601f1982820301875287358381121561073c57840190604460248301359201916001600160401b03811161073c57803603831361073c576116486020928392600195611e99565b990197019594019291906115c3565b3461073c57602036600319011261073c576001600160a01b03611678611bfe565b166000526005602052602060ff604060002054166040519015158152f35b3461073c57604036600319011261073c576001600160a01b036116b7611bfe565b16600052600a6020526040600020602435600052602052602060ff604060002054166040519015158152f35b3461073c57604036600319011261073c577ff40291df1167ceb7e8d47d23e5a9e6357c449615c463ca5d27787e227601994061171d611bfe565b6024359081151580611733575b6113f290611e45565b5060035482111561172a565b3461073c57602036600319011261073c576001600160a01b03611760611bfe565b166000526009602052602060ff604060002054166040519015158152f35b3461073c57604036600319011261073c576001600160a01b0361179f611bfe565b16600052600c60205260406000206024356000526020526020604060002054604051908152f35b3461073c57602036600319011261073c576117df611bfe565b6000546001600160a01b03169061180e906117fc33841415611eba565b6001600160a01b031691821415611eba565b80600052600960205260ff60406000205416611878576020817f6461d166f3f4e213bce7f480d30982bcde378089292bb147cb5a136065f02f6992600052600682526000604081205580600052600982526040600020600160ff19825416179055604051908152a1005b60405162461bcd60e51b815260206004820152601e60248201527f4164647265737320697320616c726561647920616e206564756361746f7200006044820152606490fd5b3461073c57602036600319011261073c57600435600052600860205261131260406000206118ea81611cb7565b9060ff6119266118fc60018401611cb7565b92610404600361190e60028401611cb7565b9201549460405197889760a0895260a0890190611d7e565b6001600160a01b038316606085015260a09290921c16151560808301520390f35b3461073c5760c036600319011261073c576024356001600160a01b038116906004359082900361073c576064356001600160401b03811161073c57611990903690600401611c14565b6084939193356001600160401b03811161073c576119b2903690600401611c14565b94909160a4356001600160401b03811161073c577fc4fdecbaf36cc0988d2952f679d78d593a3c9b718cfcfb491507692c766519de93611a4e6119fc611a5c933690600401611c14565b91909289151580611a61575b611a1190611e45565b611a1c600454611e8a565b9a8b600455611a406040519889986044358a52608060208b015260808a0191611e99565b918783036040890152611e99565b918483036060860152611e99565b0390a4005b506003548a1115611a08565b3461073c57606036600319011261073c576044356001600160a01b03811690600435906024359083900361073c57336000526009602052611ab560ff60406000205416611df9565b8215611b9257801591821580611b7a575b15611b2957600052600b6020526040600020805491808303928311611b1357600094859485948594558390611b0a575bf115611afe57005b6040513d6000823e3d90fd5b506108fc611af6565b634e487b7160e01b600052601160045260246000fd5b60405162461bcd60e51b815260206004820152602360248201527f496e73756666696369656e742062616c616e636520666f72207468697320746f60448201526270696360e81b6064820152608490fd5b5080600052600b602052604060002054821115611ac6565b60405162461bcd60e51b815260206004820152601960248201527f496e76616c696420726563697069656e742061646472657373000000000000006044820152606490fd5b3461073c57600036600319011261073c576020906001600160401b0360015460a01c168152f35b600435906001600160a01b038216820361073c57565b9181601f8401121561073c578235916001600160401b03831161073c576020838186019501011161073c57565b90600182811c92168015611c71575b6020831014611c5b57565b634e487b7160e01b600052602260045260246000fd5b91607f1691611c50565b60a081019081106001600160401b0382111761051657604052565b90601f801991011681019081106001600160401b0382111761051657604052565b9060405191826000825492611ccb84611c41565b8084529360018116908115611d395750600114611cf2575b50611cf092500383611c96565b565b90506000929192526020600020906000915b818310611d1d575050906020611cf09282010138611ce3565b6020919350806001915483858901015201910190918492611d04565b905060209250611cf094915060ff191682840152151560051b82010138611ce3565b60005b838110611d6e5750506000910152565b8181015183820152602001611d5e565b90602091611d9781518092818552858086019101611d5b565b601f01601f1916010190565b81601f8201121561073c578035906001600160401b0382116105165760405192611dd7601f8401601f191660200185611c96565b8284526020838301011161073c57816000926020809301838601378301015290565b15611e0057565b60405162461bcd60e51b815260206004820152601960248201527f43616c6c6572206973206e6f7420616e206564756361746f72000000000000006044820152606490fd5b15611e4c57565b60405162461bcd60e51b8152602060048201526016602482015275115c9c9bdc8e88125b9d985b1a59081d1bdc1a58d25960521b6044820152606490fd5b6000198114611b135760010190565b908060209392818452848401376000828201840152601f01601f1916010190565b15611ec157565b60405162461bcd60e51b815260206004820152602160248201527f436f6e7472616374206f776e65722063616e6e6f74206265206564756361746f6044820152603960f91b6064820152608490fd5b15611f1757565b60405162461bcd60e51b815260206004820152601760248201527f4572726f723a20496e76616c6964206d6f64756c6549640000000000000000006044820152606490fd5b15611f6357565b60405162461bcd60e51b815260206004820152601060248201526f125b9d985b1a59081d1bdc1a58c8125160821b6044820152606490fd5b805115611fa85760200190565b634e487b7160e01b600052603260045260246000fd5b60009291815491611fce83611c41565b80835292600181169081156120245750600114611fea57505050565b60009081526020812093945091925b83831061200a575060209250010190565b600181602092949394548385870101520191019190611ff9565b915050602093945060ff929192191683830152151560051b010190565b91908201809211611b1357565b81810292918115918404141715611b1357565b6000546001600160a01b0316330361207557565b63118cdaa760e01b6000523360045260246000fdfea264697066735822122038c667884c69b23cb9f7a29af785899cd3444b7ebb50e618d545bec0afb96e0f64736f6c634300081b0033",
  "linkReferences": {},
  "deployedLinkReferences": {}
}